{
  "_format": "hh-sol-artifact-1",
  "contractName": "Order",
  "sourceName": "contracts/Order.sol",
  "abi": [
    {
      "inputs": [
        {
          "internalType": "uint256",
          "name": "_orderId",
          "type": "uint256"
        },
        {
          "internalType": "address",
          "name": "orderRules",
          "type": "address"
        },
        {
          "internalType": "address",
          "name": "forwarder",
          "type": "address"
        }
      ],
      "stateMutability": "nonpayable",
      "type": "constructor"
    },
    {
      "inputs": [],
      "name": "InvalidShortString",
      "type": "error"
    },
    {
      "inputs": [
        {
          "internalType": "string",
          "name": "str",
          "type": "string"
        }
      ],
      "name": "StringTooLong",
      "type": "error"
    },
    {
      "anonymous": false,
      "inputs": [],
      "name": "EIP712DomainChanged",
      "type": "event"
    },
    {
      "anonymous": false,
      "inputs": [
        {
          "indexed": false,
          "internalType": "uint256",
          "name": "orderId",
          "type": "uint256"
        },
        {
          "indexed": false,
          "internalType": "enum Order.shippingState",
          "name": "state",
          "type": "uint8"
        }
      ],
      "name": "carrierpickUp",
      "type": "event"
    },
    {
      "anonymous": false,
      "inputs": [
        {
          "indexed": false,
          "internalType": "uint256",
          "name": "orderId",
          "type": "uint256"
        },
        {
          "indexed": false,
          "internalType": "enum Order.shippingState",
          "name": "state",
          "type": "uint8"
        }
      ],
      "name": "orderCanceled",
      "type": "event"
    },
    {
      "anonymous": false,
      "inputs": [
        {
          "indexed": false,
          "internalType": "uint256",
          "name": "orderId",
          "type": "uint256"
        },
        {
          "indexed": false,
          "internalType": "enum Order.shippingState",
          "name": "state",
          "type": "uint8"
        }
      ],
      "name": "orderCompleted",
      "type": "event"
    },
    {
      "anonymous": false,
      "inputs": [
        {
          "indexed": false,
          "internalType": "uint256",
          "name": "orderId",
          "type": "uint256"
        },
        {
          "indexed": false,
          "internalType": "enum Order.shippingState",
          "name": "state",
          "type": "uint8"
        }
      ],
      "name": "orderCreated",
      "type": "event"
    },
    {
      "anonymous": false,
      "inputs": [
        {
          "indexed": false,
          "internalType": "uint256",
          "name": "orderId",
          "type": "uint256"
        },
        {
          "indexed": false,
          "internalType": "enum Order.shippingState",
          "name": "state",
          "type": "uint8"
        }
      ],
      "name": "orderFailed",
      "type": "event"
    },
    {
      "anonymous": false,
      "inputs": [
        {
          "indexed": false,
          "internalType": "uint256",
          "name": "orderId",
          "type": "uint256"
        },
        {
          "indexed": false,
          "internalType": "enum Order.shippingState",
          "name": "state",
          "type": "uint8"
        }
      ],
      "name": "orderMatched",
      "type": "event"
    },
    {
      "inputs": [],
      "name": "DOMAIN_SEPARATOR",
      "outputs": [
        {
          "internalType": "bytes32",
          "name": "",
          "type": "bytes32"
        }
      ],
      "stateMutability": "view",
      "type": "function"
    },
    {
      "inputs": [
        {
          "internalType": "uint256",
          "name": "_orderId",
          "type": "uint256"
        }
      ],
      "name": "cancelOrderBeforeMatch",
      "outputs": [],
      "stateMutability": "nonpayable",
      "type": "function"
    },
    {
      "inputs": [
        {
          "internalType": "uint256",
          "name": "_orderId",
          "type": "uint256"
        }
      ],
      "name": "cancelOrderBeforePickUp",
      "outputs": [],
      "stateMutability": "nonpayable",
      "type": "function"
    },
    {
      "inputs": [
        {
          "internalType": "uint256",
          "name": "_orderId",
          "type": "uint256"
        },
        {
          "components": [
            {
              "internalType": "uint256",
              "name": "orderId",
              "type": "uint256"
            },
            {
              "internalType": "address",
              "name": "shipper",
              "type": "address"
            },
            {
              "internalType": "address",
              "name": "carrier",
              "type": "address"
            },
            {
              "internalType": "bytes32",
              "name": "departure",
              "type": "bytes32"
            },
            {
              "internalType": "bytes32",
              "name": "destination",
              "type": "bytes32"
            },
            {
              "internalType": "bytes32",
              "name": "packageWeight",
              "type": "bytes32"
            },
            {
              "internalType": "uint256",
              "name": "packagePrice",
              "type": "uint256"
            },
            {
              "internalType": "uint256",
              "name": "reward",
              "type": "uint256"
            },
            {
              "internalType": "uint256",
              "name": "collateral",
              "type": "uint256"
            },
            {
              "internalType": "uint256",
              "name": "expiredDate",
              "type": "uint256"
            },
            {
              "internalType": "uint256",
              "name": "nonce",
              "type": "uint256"
            }
          ],
          "internalType": "struct Order.OrderSigData",
          "name": "receiverOrderData",
          "type": "tuple"
        },
        {
          "internalType": "bytes",
          "name": "shipper712Sig",
          "type": "bytes"
        }
      ],
      "name": "completeOrder",
      "outputs": [],
      "stateMutability": "nonpayable",
      "type": "function"
    },
    {
      "inputs": [
        {
          "internalType": "uint256",
          "name": "_orderId",
          "type": "uint256"
        }
      ],
      "name": "completeOrderWithOutSig",
      "outputs": [],
      "stateMutability": "nonpayable",
      "type": "function"
    },
    {
      "inputs": [
        {
          "internalType": "address",
          "name": "shipper",
          "type": "address"
        },
        {
          "internalType": "bytes32",
          "name": "departure",
          "type": "bytes32"
        },
        {
          "internalType": "bytes32",
          "name": "destination",
          "type": "bytes32"
        },
        {
          "internalType": "bytes32",
          "name": "weight",
          "type": "bytes32"
        },
        {
          "internalType": "uint256",
          "name": "price",
          "type": "uint256"
        },
        {
          "internalType": "uint256",
          "name": "expiredDate",
          "type": "uint256"
        },
        {
          "internalType": "bool",
          "name": "pickupType",
          "type": "bool"
        },
        {
          "internalType": "bool",
          "name": "completeType",
          "type": "bool"
        },
        {
          "internalType": "string",
          "name": "extraData",
          "type": "string"
        }
      ],
      "name": "createOrder",
      "outputs": [
        {
          "internalType": "uint256",
          "name": "",
          "type": "uint256"
        }
      ],
      "stateMutability": "nonpayable",
      "type": "function"
    },
    {
      "inputs": [
        {
          "internalType": "uint256",
          "name": "_orderId",
          "type": "uint256"
        }
      ],
      "name": "delayPickUp",
      "outputs": [],
      "stateMutability": "nonpayable",
      "type": "function"
    },
    {
      "inputs": [],
      "name": "eip712Domain",
      "outputs": [
        {
          "internalType": "bytes1",
          "name": "fields",
          "type": "bytes1"
        },
        {
          "internalType": "string",
          "name": "name",
          "type": "string"
        },
        {
          "internalType": "string",
          "name": "version",
          "type": "string"
        },
        {
          "internalType": "uint256",
          "name": "chainId",
          "type": "uint256"
        },
        {
          "internalType": "address",
          "name": "verifyingContract",
          "type": "address"
        },
        {
          "internalType": "bytes32",
          "name": "salt",
          "type": "bytes32"
        },
        {
          "internalType": "uint256[]",
          "name": "extensions",
          "type": "uint256[]"
        }
      ],
      "stateMutability": "view",
      "type": "function"
    },
    {
      "inputs": [
        {
          "internalType": "uint256",
          "name": "_orderId",
          "type": "uint256"
        }
      ],
      "name": "expiredOrder",
      "outputs": [],
      "stateMutability": "nonpayable",
      "type": "function"
    },
    {
      "inputs": [
        {
          "internalType": "uint256",
          "name": "_orderId",
          "type": "uint256"
        },
        {
          "internalType": "address",
          "name": "owner",
          "type": "address"
        }
      ],
      "name": "getNonce",
      "outputs": [
        {
          "internalType": "uint256",
          "name": "",
          "type": "uint256"
        }
      ],
      "stateMutability": "view",
      "type": "function"
    },
    {
      "inputs": [
        {
          "internalType": "uint256",
          "name": "_orderId",
          "type": "uint256"
        }
      ],
      "name": "getOrder",
      "outputs": [
        {
          "components": [
            {
              "internalType": "uint256",
              "name": "_orderId",
              "type": "uint256"
            },
            {
              "internalType": "address",
              "name": "_shipper",
              "type": "address"
            },
            {
              "internalType": "address",
              "name": "_carrier",
              "type": "address"
            },
            {
              "internalType": "bytes32",
              "name": "_departure",
              "type": "bytes32"
            },
            {
              "internalType": "bytes32",
              "name": "_destination",
              "type": "bytes32"
            },
            {
              "internalType": "bytes32",
              "name": "_packageWeight",
              "type": "bytes32"
            },
            {
              "internalType": "uint256",
              "name": "_price",
              "type": "uint256"
            },
            {
              "internalType": "uint256",
              "name": "_reward",
              "type": "uint256"
            },
            {
              "internalType": "uint256",
              "name": "_collateral",
              "type": "uint256"
            },
            {
              "internalType": "uint256",
              "name": "_failDate",
              "type": "uint256"
            },
            {
              "internalType": "uint256",
              "name": "_pickupDate",
              "type": "uint256"
            },
            {
              "internalType": "uint256",
              "name": "_expiredDate",
              "type": "uint256"
            },
            {
              "internalType": "enum Order.shippingState",
              "name": "_shipState",
              "type": "uint8"
            },
            {
              "internalType": "bool",
              "name": "isDirect",
              "type": "bool"
            },
            {
              "internalType": "bool",
              "name": "ispickupContact",
              "type": "bool"
            },
            {
              "internalType": "bool",
              "name": "iscompleteContact",
              "type": "bool"
            }
          ],
          "internalType": "struct Order.order",
          "name": "",
          "type": "tuple"
        }
      ],
      "stateMutability": "view",
      "type": "function"
    },
    {
      "inputs": [],
      "name": "getOrderId",
      "outputs": [
        {
          "internalType": "uint256",
          "name": "",
          "type": "uint256"
        }
      ],
      "stateMutability": "view",
      "type": "function"
    },
    {
      "inputs": [
        {
          "internalType": "address",
          "name": "user",
          "type": "address"
        }
      ],
      "name": "getRecord",
      "outputs": [
        {
          "components": [
            {
              "internalType": "uint256",
              "name": "completeOrder_shipping",
              "type": "uint256"
            },
            {
              "internalType": "uint256",
              "name": "completeOrder_carrying",
              "type": "uint256"
            },
            {
              "internalType": "uint256",
              "name": "expiredOrder",
              "type": "uint256"
            },
            {
              "internalType": "uint256",
              "name": "failOrder",
              "type": "uint256"
            }
          ],
          "internalType": "struct Order.TrackContributions",
          "name": "",
          "type": "tuple"
        }
      ],
      "stateMutability": "view",
      "type": "function"
    },
    {
      "inputs": [
        {
          "components": [
            {
              "internalType": "uint256",
              "name": "orderId",
              "type": "uint256"
            },
            {
              "internalType": "address",
              "name": "shipper",
              "type": "address"
            },
            {
              "internalType": "address",
              "name": "carrier",
              "type": "address"
            },
            {
              "internalType": "bytes32",
              "name": "departure",
              "type": "bytes32"
            },
            {
              "internalType": "bytes32",
              "name": "destination",
              "type": "bytes32"
            },
            {
              "internalType": "bytes32",
              "name": "packageWeight",
              "type": "bytes32"
            },
            {
              "internalType": "uint256",
              "name": "packagePrice",
              "type": "uint256"
            },
            {
              "internalType": "uint256",
              "name": "reward",
              "type": "uint256"
            },
            {
              "internalType": "uint256",
              "name": "collateral",
              "type": "uint256"
            },
            {
              "internalType": "uint256",
              "name": "expiredDate",
              "type": "uint256"
            },
            {
              "internalType": "uint256",
              "name": "nonce",
              "type": "uint256"
            }
          ],
          "internalType": "struct Order.OrderSigData",
          "name": "orderSigData",
          "type": "tuple"
        }
      ],
      "name": "hashStruct",
      "outputs": [
        {
          "internalType": "bytes32",
          "name": "",
          "type": "bytes32"
        }
      ],
      "stateMutability": "pure",
      "type": "function"
    },
    {
      "inputs": [
        {
          "internalType": "address",
          "name": "forwarder",
          "type": "address"
        }
      ],
      "name": "isTrustedForwarder",
      "outputs": [
        {
          "internalType": "bool",
          "name": "",
          "type": "bool"
        }
      ],
      "stateMutability": "view",
      "type": "function"
    },
    {
      "inputs": [
        {
          "internalType": "uint256",
          "name": "_orderId",
          "type": "uint256"
        },
        {
          "components": [
            {
              "internalType": "uint256",
              "name": "orderId",
              "type": "uint256"
            },
            {
              "internalType": "address",
              "name": "shipper",
              "type": "address"
            },
            {
              "internalType": "address",
              "name": "carrier",
              "type": "address"
            },
            {
              "internalType": "bytes32",
              "name": "departure",
              "type": "bytes32"
            },
            {
              "internalType": "bytes32",
              "name": "destination",
              "type": "bytes32"
            },
            {
              "internalType": "bytes32",
              "name": "packageWeight",
              "type": "bytes32"
            },
            {
              "internalType": "uint256",
              "name": "packagePrice",
              "type": "uint256"
            },
            {
              "internalType": "uint256",
              "name": "reward",
              "type": "uint256"
            },
            {
              "internalType": "uint256",
              "name": "collateral",
              "type": "uint256"
            },
            {
              "internalType": "uint256",
              "name": "expiredDate",
              "type": "uint256"
            },
            {
              "internalType": "uint256",
              "name": "nonce",
              "type": "uint256"
            }
          ],
          "internalType": "struct Order.OrderSigData",
          "name": "shipperOrderData",
          "type": "tuple"
        },
        {
          "internalType": "bytes",
          "name": "shipperMsg",
          "type": "bytes"
        }
      ],
      "name": "pickOrder",
      "outputs": [],
      "stateMutability": "nonpayable",
      "type": "function"
    },
    {
      "inputs": [
        {
          "internalType": "uint256",
          "name": "_orderId",
          "type": "uint256"
        }
      ],
      "name": "pickOrderWithOutSig",
      "outputs": [],
      "stateMutability": "nonpayable",
      "type": "function"
    },
    {
      "inputs": [
        {
          "internalType": "uint256",
          "name": "_orderId",
          "type": "uint256"
        },
        {
          "components": [
            {
              "internalType": "uint256",
              "name": "orderId",
              "type": "uint256"
            },
            {
              "internalType": "address",
              "name": "shipper",
              "type": "address"
            },
            {
              "internalType": "address",
              "name": "carrier",
              "type": "address"
            },
            {
              "internalType": "bytes32",
              "name": "departure",
              "type": "bytes32"
            },
            {
              "internalType": "bytes32",
              "name": "destination",
              "type": "bytes32"
            },
            {
              "internalType": "bytes32",
              "name": "packageWeight",
              "type": "bytes32"
            },
            {
              "internalType": "uint256",
              "name": "packagePrice",
              "type": "uint256"
            },
            {
              "internalType": "uint256",
              "name": "reward",
              "type": "uint256"
            },
            {
              "internalType": "uint256",
              "name": "collateral",
              "type": "uint256"
            },
            {
              "internalType": "uint256",
              "name": "expiredDate",
              "type": "uint256"
            },
            {
              "internalType": "uint256",
              "name": "nonce",
              "type": "uint256"
            }
          ],
          "internalType": "struct Order.OrderSigData",
          "name": "carrierOrderData",
          "type": "tuple"
        },
        {
          "internalType": "bytes",
          "name": "carrierOrderSig",
          "type": "bytes"
        },
        {
          "components": [
            {
              "internalType": "address",
              "name": "owner",
              "type": "address"
            },
            {
              "internalType": "address",
              "name": "spender",
              "type": "address"
            },
            {
              "internalType": "uint256",
              "name": "value",
              "type": "uint256"
            },
            {
              "internalType": "uint256",
              "name": "nonce",
              "type": "uint256"
            },
            {
              "internalType": "uint256",
              "name": "deadline",
              "type": "uint256"
            }
          ],
          "internalType": "struct Order.PermitSigData",
          "name": "carrierPermitData",
          "type": "tuple"
        },
        {
          "internalType": "bytes",
          "name": "carrierCollateralSig",
          "type": "bytes"
        },
        {
          "components": [
            {
              "internalType": "address",
              "name": "owner",
              "type": "address"
            },
            {
              "internalType": "address",
              "name": "spender",
              "type": "address"
            },
            {
              "internalType": "uint256",
              "name": "value",
              "type": "uint256"
            },
            {
              "internalType": "uint256",
              "name": "nonce",
              "type": "uint256"
            },
            {
              "internalType": "uint256",
              "name": "deadline",
              "type": "uint256"
            }
          ],
          "internalType": "struct Order.PermitSigData",
          "name": "shipperPermitData",
          "type": "tuple"
        },
        {
          "internalType": "bytes",
          "name": "shipperRewardSig",
          "type": "bytes"
        }
      ],
      "name": "selectOrder",
      "outputs": [],
      "stateMutability": "nonpayable",
      "type": "function"
    }
  ],
  "bytecode": "0x61018060405260056004553480156200001757600080fd5b506040516200525d3803806200525d8339810160408190526200003a9162000230565b806040518060400160405280600581526020016427b93232b960d91b815250604051806040016040528060018152602001603160f81b8152506200008e6000836200017460201b62003d791790919060201c565b61012052620000ab81600162000174602090811b62003d7917901c565b61014052815160208084019190912060e052815190820120610100524660a0526200013960e05161010051604080517f8b73c3c69bb8fe3d512ecc4cf759cc79239f7b179b0ffacaa9a75d522b39400f60208201529081019290925260608201524660808201523060a082015260009060c00160405160208183030381529060405280519060200120905090565b60805250503060c0526001600160a01b0390811661016052600780546001600160a01b03191693909116929092179091555060035562000457565b600060208351101562000194576200018c83620001c4565b9050620001be565b82620001ab836200021060201b62003daa1760201c565b90620001b8908262000316565b5060ff90505b92915050565b600080829050601f81511115620001fb578260405163305a27a960e01b8152600401620001f29190620003e2565b60405180910390fd5b8051620002088262000432565b179392505050565b90565b80516001600160a01b03811681146200022b57600080fd5b919050565b6000806000606084860312156200024657600080fd5b83519250620002586020850162000213565b9150620002686040850162000213565b90509250925092565b634e487b7160e01b600052604160045260246000fd5b600181811c908216806200029c57607f821691505b602082108103620002bd57634e487b7160e01b600052602260045260246000fd5b50919050565b601f8211156200031157600081815260208120601f850160051c81016020861015620002ec5750805b601f850160051c820191505b818110156200030d57828155600101620002f8565b5050505b505050565b81516001600160401b0381111562000332576200033262000271565b6200034a8162000343845462000287565b84620002c3565b602080601f831160018114620003825760008415620003695750858301515b600019600386901b1c1916600185901b1785556200030d565b600085815260208120601f198616915b82811015620003b35788860151825594840194600190910190840162000392565b5085821015620003d25787850151600019600388901b60f8161c191681555b5050505050600190811b01905550565b600060208083528351808285015260005b818110156200041157858101830151858201604001528201620003f3565b506000604082860101526040601f19601f8301168501019250505092915050565b80516020808301519190811015620002bd5760001960209190910360031b1b16919050565b60805160a05160c05160e05161010051610120516101405161016051614d99620004c4600039600081816101ba0152613db101526000611b3d01526000611b1301526000613f7b01526000613f5301526000613eae01526000613ed801526000613f020152614d996000f3fe608060405234801561001057600080fd5b50600436106101165760003560e01c806373856615116100a2578063a849642611610071578063a849642614610294578063b6841c1b1461029c578063c67345d7146102af578063cfd6adaa146102c2578063d09ef241146102d557600080fd5b8063738566151461024057806384b0196e146102535780638c4f21401461026e578063956896b01461028157600080fd5b806343b422cf116100e957806343b422cf146101715780635084b79e1461018457806352d67c0514610197578063572b6c05146101aa578063617fba04146101fa57600080fd5b806313c0d2e11461011b5780631a8c6c4b1461013057806328fad555146101435780633644e51514610156575b600080fd5b61012e6101293660046141d9565b6102f5565b005b61012e61013e3660046141d9565b610475565b61012e610151366004614396565b610580565b61015e610768565b6040519081526020015b60405180910390f35b61012e61017f366004614472565b610777565b61015e61019236600461453f565b610f6b565b61012e6101a53660046141d9565b61105b565b6101ea6101b836600461455c565b7f00000000000000000000000000000000000000000000000000000000000000006001600160a01b0390811691161490565b6040519015158152602001610168565b61020d61020836600461455c565b611a65565b60405161016891908151815260208083015190820152604080830151908201526060918201519181019190915260800190565b61015e61024e366004614579565b611adb565b61025b611b05565b60405161016897969594939291906145ef565b61012e61027c366004614396565b611b8d565b61015e61028f366004614693565b6123d5565b60035461015e565b61012e6102aa3660046141d9565b6127f9565b61012e6102bd3660046141d9565b612ed9565b61012e6102d03660046141d9565b61341b565b6102e86102e33660046141d9565b613be2565b6040516101689190614785565b60016000828152600560205260409020600c015460ff16600881111561031d5761031d61474d565b146103435760405162461bcd60e51b815260040161033a9061486a565b60405180910390fd5b6000818152600560205260409020600201546001600160a01b0316610366613dad565b6001600160a01b0316146103bc5760405162461bcd60e51b815260206004820152601d60248201527f6f6e6c7920636172726965722063616e207069636b2062616767616765000000604482015260640161033a565b6000818152600560205260409020600c015462010000900460ff16156104195760405162461bcd60e51b815260206004820152601260248201527106e6f6e2d636f6e74616374207069636b75760741b604482015260640161033a565b60008181526005602052604090819020600c01805460ff1916600290811790915590517f7e28eaecff0e3b4212f47ff9eb5c29ab9352e550bd02fc9458264e6561344cfa9161046a91849190614895565b60405180910390a150565b6000818152600560205260409020600101546001600160a01b0316610498613dad565b6001600160a01b0316146104be5760405162461bcd60e51b815260040161033a906148a9565b6000818152600560205260408120600c015460ff1660088111156104e4576104e461474d565b146105415760405162461bcd60e51b815260206004820152602760248201527f6f6e6c79206f72646572206265666f7265206d617463682063616e2062652063604482015266185b98d95b195960ca1b606482015260840161033a565b60008181526005602052604090819020600c01805460ff191660069081179091559051600080516020614d448339815191529161046a91849190614895565b60016000848152600560205260409020600c015460ff1660088111156105a8576105a861474d565b146105c55760405162461bcd60e51b815260040161033a9061486a565b6000838152600560205260409020600201546001600160a01b03166105e8613dad565b6001600160a01b03161461063e5760405162461bcd60e51b815260206004820152601d60248201527f6f6e6c7920636172726965722063616e207069636b2062616767616765000000604482015260640161033a565b6000838152600560205260409020600c015462010000900460ff1615156001146106a05760405162461bcd60e51b81526020600482015260136024820152720666163652d746f2d66616365207069636b757606c1b604482015260640161033a565b60006106ab83610f6b565b905060006106c16106bb83613df1565b84613e1e565b50905083602001516001600160a01b0316816001600160a01b0316146106f95760405162461bcd60e51b815260040161033a906148ea565b610707858560200151613e63565b5060008581526005602052604090819020600c01805460ff1916600290811790915590517f7e28eaecff0e3b4212f47ff9eb5c29ab9352e550bd02fc9458264e6561344cfa9161075991889190614895565b60405180910390a15050505050565b6000610772613ea1565b905090565b60008781526005602052604081205490036107c65760405162461bcd60e51b815260206004820152600f60248201526e1bdc99195c881b9bdd08195e1a5cdd608a1b604482015260640161033a565b6000878152600560205260408120600c015460ff1660088111156107ec576107ec61474d565b146108475760405162461bcd60e51b815260206004820152602560248201527f6f6e6c79206e6f74206d617463686564206f726465722063616e206265206d616044820152641d18da195960da1b606482015260840161033a565b6000878152600560205260409020600b015442106108a75760405162461bcd60e51b815260206004820152601860248201527f6f72646572206d617463682074696d6520657870697265640000000000000000604482015260640161033a565b6000878152600560205260409020600101546001600160a01b03166108ca613dad565b6001600160a01b0316146109205760405162461bcd60e51b815260206004820152601f60248201527f6f6e6c7920736869707065722063616e2073656c656374206361727269657200604482015260640161033a565b600760009054906101000a90046001600160a01b03166001600160a01b031663263293016040518163ffffffff1660e01b8152600401602060405180830381865afa158015610973573d6000803e3d6000fd5b505050506040513d601f19601f820116820180604052508101906109979190614921565b8660e0015110156109f85760405162461bcd60e51b815260206004820152602560248201527f636172726965722073686f756c642073756767657374206d696e696d616c2072604482015264195dd85c9960da1b606482015260840161033a565b6000610a0387610f6b565b90506000610a19610a1383613df1565b88613e1e565b50905087604001516001600160a01b0316816001600160a01b031614610a515760405162461bcd60e51b815260040161033a906148ea565b6007546040805163026be4bf60e41b815290516000926001600160a01b0316916326be4bf09160048083019260209291908290030181865afa158015610a9b573d6000803e3d6000fd5b505050506040513d601f19601f82011682018060405250810190610abf919061493a565b90506000600760009054906101000a90046001600160a01b03166001600160a01b031663bcff4f1e6040518163ffffffff1660e01b8152600401602060405180830381865afa158015610b16573d6000803e3d6000fd5b505050506040513d601f19601f82011682018060405250810190610b3a9190614921565b9050816001600160a01b031663b7e9d2ca8c8a60000151308c604001518d608001518d6040518763ffffffff1660e01b8152600401610b7e96959493929190614957565b600060405180830381600087803b158015610b9857600080fd5b505af1158015610bac573d6000803e3d6000fd5b505089516040808c015190516323b872dd60e01b81526001600160a01b039283166004820152306024820152604481019190915290851692506323b872dd91506064016020604051808303816000875af1158015610c0e573d6000803e3d6000fd5b505050506040513d601f19601f82011682018060405250810190610c3291906149a3565b50816001600160a01b031663b7e9d2ca8c8860000151308a604001518b608001518b6040518763ffffffff1660e01b8152600401610c7596959493929190614957565b600060405180830381600087803b158015610c8f57600080fd5b505af1158015610ca3573d6000803e3d6000fd5b505087516040808a015190516323b872dd60e01b81526001600160a01b039283166004820152306024820152604481019190915290851692506323b872dd91506064016020604051808303816000875af1158015610d05573d6000803e3d6000fd5b505050506040513d601f19601f82011682018060405250810190610d2991906149a3565b50610d388b8b60400151613e63565b5060408a81015160008d81526005602052919091206002810180546001600160a01b0319166001600160a01b039093169290921790915560e08b01516007820155600c0154610100900460ff161515600103610e3957610d9881426149d6565b60008c815260056020908152604091829020600a0192909255600754815163ce40cdeb60e01b815291516001600160a01b039091169263ce40cdeb92600480820193918290030181865afa158015610df4573d6000803e3d6000fd5b505050506040513d601f19601f82011682018060405250810190610e189190614921565b610e2290426149d6565b60008c815260056020526040902060090155610f05565b60008b8152600560205260409020600b0154610e569082906149e9565b60008c815260056020908152604091829020600a0192909255600754815163c2c2329360e01b815291516001600160a01b039091169263c2c2329392600480820193918290030181865afa158015610eb2573d6000803e3d6000fd5b505050506040513d601f19601f82011682018060405250810190610ed69190614921565b60008c8152600560205260409020600b0154610ef291906149d6565b60008c8152600560205260409020600901555b60008b81526005602052604090819020600c01805460ff1916600190811790915590517f59e0ac0bd0bbda75e2f7bc66fbccf89d4e64bd3a0ff5be2d97608162cfd3789f91610f56918e9190614895565b60405180910390a15050505050505050505050565b60007f2d416decf85570428506cbe3ba384aa273c07f87a4f1439ba73280e1822ceec1826000015183602001518460400151856060015186608001518760a001518860c001518960e001518a61010001518b61012001518c610140015160405160200161103e9c9b9a999897969594939291909b8c5260208c019a909a526001600160a01b0398891660408c01529690971660608a0152608089019490945260a088019290925260c087015260e08601526101008501526101208401919091526101408301526101608201526101800190565b604051602081830303815290604052805190602001209050919050565b6000818152600560205260409020600201546001600160a01b031661107e613dad565b6001600160a01b031614806110bc57506000818152600560205260409020600101546001600160a01b03166110b1613dad565b6001600160a01b0316145b6110d85760405162461bcd60e51b815260040161033a906148a9565b60016000828152600560205260409020600c015460ff1660088111156111005761110061474d565b1461111d5760405162461bcd60e51b815260040161033a9061486a565b6000818152600560205260409020600a0154421061117d5760405162461bcd60e51b815260206004820152601b60248201527f6f726465722073686f756c64206e6f742062652064656c617965640000000000604482015260640161033a565b6007546040805163026be4bf60e41b815290516000926001600160a01b0316916326be4bf09160048083019260209291908290030181865afa1580156111c7573d6000803e3d6000fd5b505050506040513d601f19601f820116820180604052508101906111eb919061493a565b9050600060045460026111fe91906149d6565b61120990600a614ae0565b600760009054906101000a90046001600160a01b03166001600160a01b0316636ea8bc106040518163ffffffff1660e01b8152600401602060405180830381865afa15801561125c573d6000803e3d6000fd5b505050506040513d601f19601f820116820180604052508101906112809190614921565b60008581526005602052604090206007015461129c9190614aec565b6112a69190614b03565b6000848152600560205260409020600101549091506001600160a01b03166112cc613dad565b6001600160a01b0316036115f45760006064600760009054906101000a90046001600160a01b03166001600160a01b031663f1bbfa4c6040518163ffffffff1660e01b8152600401602060405180830381865afa158015611331573d6000803e3d6000fd5b505050506040513d601f19601f820116820180604052508101906113559190614921565b6000868152600560205260409020600701546113719190614aec565b61137b9190614b03565b600085815260056020526040902060028101546008909101549192506001600160a01b038086169263a9059cbb92909116906113b89085906149d6565b6040518363ffffffff1660e01b81526004016113d5929190614b25565b6020604051808303816000875af11580156113f4573d6000803e3d6000fd5b505050506040513d601f19601f8201168201806040525081019061141891906149a3565b50600084815260056020526040902060018101546007909101546001600160a01b038086169263a9059cbb9291169085906114549086906149e9565b61145e91906149e9565b6040518363ffffffff1660e01b815260040161147b929190614b25565b6020604051808303816000875af115801561149a573d6000803e3d6000fd5b505050506040513d601f19601f820116820180604052508101906114be91906149a3565b50826001600160a01b031663a9059cbb600760009054906101000a90046001600160a01b03166001600160a01b031663e00246046040518163ffffffff1660e01b8152600401602060405180830381865afa158015611521573d6000803e3d6000fd5b505050506040513d601f19601f82011682018060405250810190611545919061493a565b846040518363ffffffff1660e01b8152600401611563929190614b25565b6020604051808303816000875af1158015611582573d6000803e3d6000fd5b505050506040513d601f19601f820116820180604052508101906115a691906149a3565b5060008481526005602052604090819020600c01805460ff191660079081179091559051600080516020614d44833981519152916115e691879190614895565b60405180910390a150505050565b6000838152600560205260409020600201546001600160a01b0316611617613dad565b6001600160a01b031603611a605760006064600760009054906101000a90046001600160a01b03166001600160a01b0316639c9b9edd6040518163ffffffff1660e01b8152600401602060405180830381865afa15801561167c573d6000803e3d6000fd5b505050506040513d601f19601f820116820180604052508101906116a09190614921565b6000868152600560205260409020600801546116bc9190614aec565b6116c69190614b03565b600085815260056020526040902060018101546007909101549192506001600160a01b038086169263a9059cbb92909116906117039085906149d6565b6040518363ffffffff1660e01b8152600401611720929190614b25565b6020604051808303816000875af115801561173f573d6000803e3d6000fd5b505050506040513d601f19601f8201168201806040525081019061176391906149a3565b5060008481526005602052604090206008015482906117839083906149e9565b101561189257826001600160a01b031663a9059cbb600760009054906101000a90046001600160a01b03166001600160a01b031663e00246046040518163ffffffff1660e01b8152600401602060405180830381865afa1580156117eb573d6000803e3d6000fd5b505050506040513d601f19601f8201168201806040525081019061180f919061493a565b60008781526005602052604090206008015461182c9085906149e9565b6040518363ffffffff1660e01b8152600401611849929190614b25565b6020604051808303816000875af1158015611868573d6000803e3d6000fd5b505050506040513d601f19601f8201168201806040525081019061188c91906149a3565b50611a21565b600084815260056020526040902060028101546008909101546001600160a01b038086169263a9059cbb9291169085906118cd9086906149e9565b6118d791906149e9565b6040518363ffffffff1660e01b81526004016118f4929190614b25565b6020604051808303816000875af1158015611913573d6000803e3d6000fd5b505050506040513d601f19601f8201168201806040525081019061193791906149a3565b50826001600160a01b031663a9059cbb600760009054906101000a90046001600160a01b03166001600160a01b031663e00246046040518163ffffffff1660e01b8152600401602060405180830381865afa15801561199a573d6000803e3d6000fd5b505050506040513d601f19601f820116820180604052508101906119be919061493a565b846040518363ffffffff1660e01b81526004016119dc929190614b25565b6020604051808303816000875af11580156119fb573d6000803e3d6000fd5b505050506040513d601f19601f82011682018060405250810190611a1f91906149a3565b505b60008481526005602052604090819020600c01805460ff191660089081179091559051600080516020614d44833981519152916115e691879190614895565b505050565b611a906040518060800160405280600081526020016000815260200160008152602001600081525090565b506001600160a01b0316600090815260026020818152604092839020835160808101855281548152600182015492810192909252918201549281019290925260030154606082015290565b60008281526006602090815260408083206001600160a01b03851684529091529020545b92915050565b600060608082808083611b387f000000000000000000000000000000000000000000000000000000000000000083613fcc565b611b637f00000000000000000000000000000000000000000000000000000000000000006001613fcc565b60408051600080825260208201909252600f60f81b9b939a50919850469750309650945092509050565b6000838152600560205260409020600201546001600160a01b0316611bb0613dad565b6001600160a01b031614611bd65760405162461bcd60e51b815260040161033a90614b3e565b60026000848152600560205260409020600c015460ff166008811115611bfe57611bfe61474d565b14611c1b5760405162461bcd60e51b815260040161033a90614b80565b6000838152600560205260409020600c01546301000000900460ff161515600114611c805760405162461bcd60e51b8152602060048201526015602482015274666163652d746f2d6661636520636f6d706c65746560581b604482015260640161033a565b6000611c8b83610f6b565b90506000611c9b6106bb83613df1565b50905083602001516001600160a01b0316816001600160a01b031614611cd35760405162461bcd60e51b815260040161033a906148ea565b611ce1858560200151613e63565b506000858152600560205260408120600c8101805460ff191660031790556008810154600790910154611d1491906149d6565b90506000600760009054906101000a90046001600160a01b03166001600160a01b03166326be4bf06040518163ffffffff1660e01b8152600401602060405180830381865afa158015611d6b573d6000803e3d6000fd5b505050506040513d601f19601f82011682018060405250810190611d8f919061493a565b905060006004546002611da291906149d6565b611dad90600a614ae0565b600760009054906101000a90046001600160a01b03166001600160a01b0316636ea8bc106040518163ffffffff1660e01b8152600401602060405180830381865afa158015611e00573d6000803e3d6000fd5b505050506040513d601f19601f82011682018060405250810190611e249190614921565b60008a815260056020526040902060070154611e409190614aec565b611e4a9190614b03565b905080831115611fd157816001600160a01b031663a9059cbb600760009054906101000a90046001600160a01b03166001600160a01b031663e00246046040518163ffffffff1660e01b8152600401602060405180830381865afa158015611eb6573d6000803e3d6000fd5b505050506040513d601f19601f82011682018060405250810190611eda919061493a565b836040518363ffffffff1660e01b8152600401611ef8929190614b25565b6020604051808303816000875af1158015611f17573d6000803e3d6000fd5b505050506040513d601f19601f82011682018060405250810190611f3b91906149a3565b506000888152600560205260409020600201546001600160a01b038084169163a9059cbb9116611f6b84876149e9565b6040518363ffffffff1660e01b8152600401611f88929190614b25565b6020604051808303816000875af1158015611fa7573d6000803e3d6000fd5b505050506040513d601f19601f82011682018060405250810190611fcb91906149a3565b5061205a565b6000888152600560205260409081902060020154905163a9059cbb60e01b81526001600160a01b038481169263a9059cbb9261201592909116908790600401614b25565b6020604051808303816000875af1158015612034573d6000803e3d6000fd5b505050506040513d601f19601f8201168201806040525081019061205891906149a3565b505b6000888152600560209081526040808320600101546001600160a01b031683526002909152812080549161208d83614bab565b909155505060008881526005602090815260408083206002908101546001600160a01b0316845290915281206001018054916120c883614bab565b9190505550600760009054906101000a90046001600160a01b03166001600160a01b03166371d433146040518163ffffffff1660e01b8152600401602060405180830381865afa158015612120573d6000803e3d6000fd5b505050506040513d601f19601f82011682018060405250810190612144919061493a565b600089815260056020908152604091829020600201546007548351631fa6cf7960e11b815293516001600160a01b03958616956326bd07aa9593811694921692633f4d9ef29260048083019391928290030181865afa1580156121ab573d6000803e3d6000fd5b505050506040513d601f19601f820116820180604052508101906121cf919061493a565b6040516001600160e01b031960e085901b1681526001600160a01b03928316600482015291166024820152604401600060405180830381600087803b15801561221757600080fd5b505af115801561222b573d6000803e3d6000fd5b50505050600760009054906101000a90046001600160a01b03166001600160a01b03166371d433146040518163ffffffff1660e01b8152600401602060405180830381865afa158015612282573d6000803e3d6000fd5b505050506040513d601f19601f820116820180604052508101906122a6919061493a565b60008981526005602090815260409182902060010154600754835163e847dd8360e01b815293516001600160a01b03958616956326bd07aa959381169492169263e847dd839260048083019391928290030181865afa15801561230d573d6000803e3d6000fd5b505050506040513d601f19601f82011682018060405250810190612331919061493a565b6040516001600160e01b031960e085901b1681526001600160a01b03928316600482015291166024820152604401600060405180830381600087803b15801561237957600080fd5b505af115801561238d573d6000803e3d6000fd5b505050507f7faabd98924c5226436962146935300b9b60c52dc902fd6d545e4d3807ca54738860036040516123c3929190614895565b60405180910390a15050505050505050565b6000896001600160a01b03166123e9613dad565b6001600160a01b03161461243f5760405162461bcd60e51b815260206004820152601d60248201527f6f72646572206d75737420626520637265617465642062792073656c66000000604482015260640161033a565b600061244a60035490565b6000818152600560205260409020600101549091506001600160a01b0316156124ab5760405162461bcd60e51b81526020600482015260136024820152721bdc99195c88185b1c9958591e48195e1a5cdd606a1b604482015260640161033a565b8060056000838152602001908152602001600020600001819055508a6005600083815260200190815260200160002060010160006101000a8154816001600160a01b0302191690836001600160a01b03160217905550896005600083815260200190815260200160002060030181905550886005600083815260200190815260200160002060040181905550876005600083815260200190815260200160002060050181905550866005600083815260200190815260200160002060060181905550600760009054906101000a90046001600160a01b03166001600160a01b03166304366b586040518163ffffffff1660e01b8152600401602060405180830381865afa1580156125c0573d6000803e3d6000fd5b505050506040513d601f19601f820116820180604052508101906125e49190614921565b6125ee9088614b03565b6000828152600560205260408120600801919091558690036126b557600081815260056020908152604091829020600c01805461ff001916610100179055600754825163171f189560e21b815292516001600160a01b0390911692635c7c62549260048083019391928290030181865afa158015612670573d6000803e3d6000fd5b505050506040513d601f19601f820116820180604052508101906126949190614921565b61269e90426149d6565b6000828152600560205260409020600b0155612758565b600081815260056020908152604091829020600c01805461ff001916905560075482516379a8710760e11b815292516001600160a01b039091169263f350e20e9260048083019391928290030181865afa158015612717573d6000803e3d6000fd5b505050506040513d601f19601f8201168201806040525081019061273b9190614921565b61274590876149e9565b6000828152600560205260409020600b01555b6000818152600560205260408120600c01805463ffff00001916620100008815150263ff0000001916176301000000871515021780825560ff191660018302179055507f5b5a3561346cda3fa76bc9aed5b4034bbb9989070dd68e9f25c2dd080082f1b68160006040516127cd929190614895565b60405180910390a1600380549060006127e583614bab565b90915550909b9a5050505050505050505050565b6000818152600560205260409020600101546001600160a01b031661281c613dad565b6001600160a01b0316146128725760405162461bcd60e51b815260206004820181905260248201527f6f6e6c7920736869707065722063616e2063616e63656c2062792064656c6179604482015260640161033a565b60016000828152600560205260409020600c015460ff16600881111561289a5761289a61474d565b146128b75760405162461bcd60e51b815260040161033a9061486a565b6000818152600560205260409020600a0154421161290e5760405162461bcd60e51b81526020600482015260146024820152731bdc99195c881a5cc81b9bdd0819195b185e595960621b604482015260640161033a565b6007546040805163026be4bf60e41b815290516000926001600160a01b0316916326be4bf09160048083019260209291908290030181865afa158015612958573d6000803e3d6000fd5b505050506040513d601f19601f8201168201806040525081019061297c919061493a565b905060006064600760009054906101000a90046001600160a01b03166001600160a01b0316639c9b9edd6040518163ffffffff1660e01b8152600401602060405180830381865afa1580156129d5573d6000803e3d6000fd5b505050506040513d601f19601f820116820180604052508101906129f99190614921565b600085815260056020526040902060080154612a159190614aec565b612a1f9190614b03565b905060006004546002612a3291906149d6565b612a3d90600a614ae0565b600760009054906101000a90046001600160a01b03166001600160a01b0316636ea8bc106040518163ffffffff1660e01b8152600401602060405180830381865afa158015612a90573d6000803e3d6000fd5b505050506040513d601f19601f82011682018060405250810190612ab49190614921565b600086815260056020526040902060070154612ad09190614aec565b612ada9190614b03565b6000858152600560205260409020600c8101805460ff1916600417905560018101546007909101549192506001600160a01b038581169263a9059cbb929190911690612b279086906149d6565b6040518363ffffffff1660e01b8152600401612b44929190614b25565b6020604051808303816000875af1158015612b63573d6000803e3d6000fd5b505050506040513d601f19601f82011682018060405250810190612b8791906149a3565b506000848152600560205260409020600801548190612ba79084906149e9565b1015612cb657826001600160a01b031663a9059cbb600760009054906101000a90046001600160a01b03166001600160a01b031663e00246046040518163ffffffff1660e01b8152600401602060405180830381865afa158015612c0f573d6000803e3d6000fd5b505050506040513d601f19601f82011682018060405250810190612c33919061493a565b600087815260056020526040902060080154612c509086906149e9565b6040518363ffffffff1660e01b8152600401612c6d929190614b25565b6020604051808303816000875af1158015612c8c573d6000803e3d6000fd5b505050506040513d601f19601f82011682018060405250810190612cb091906149a3565b50612e45565b600084815260056020526040902060028101546008909101546001600160a01b038086169263a9059cbb929116908490612cf19087906149e9565b612cfb91906149e9565b6040518363ffffffff1660e01b8152600401612d18929190614b25565b6020604051808303816000875af1158015612d37573d6000803e3d6000fd5b505050506040513d601f19601f82011682018060405250810190612d5b91906149a3565b50826001600160a01b031663a9059cbb600760009054906101000a90046001600160a01b03166001600160a01b031663e00246046040518163ffffffff1660e01b8152600401602060405180830381865afa158015612dbe573d6000803e3d6000fd5b505050506040513d601f19601f82011682018060405250810190612de2919061493a565b836040518363ffffffff1660e01b8152600401612e00929190614b25565b6020604051808303816000875af1158015612e1f573d6000803e3d6000fd5b505050506040513d601f19601f82011682018060405250810190612e4391906149a3565b505b6000848152600560209081526040808320600101546001600160a01b03168352600291829052822001805491612e7a83614bab565b909155505060008481526005602090815260408083206002908101546001600160a01b0316845291829052822001805491612eb483614bab565b9190505550600080516020614d448339815191528460046040516115e6929190614895565b6000818152600560205260409020600101546001600160a01b0316612efc613dad565b6001600160a01b031614612f525760405162461bcd60e51b815260206004820181905260248201527f6f6e6c7920736869707065722063616e206578706972652064656c6976657279604482015260640161033a565b60026000828152600560205260409020600c015460ff166008811115612f7a57612f7a61474d565b14612f975760405162461bcd60e51b815260040161033a90614b80565b6000818152600560205260409020600901544211612fee5760405162461bcd60e51b81526020600482015260146024820152731bdc99195c881a5cc81b9bdd08195e1c1a5c995960621b604482015260640161033a565b6007546040805163026be4bf60e41b815290516000926001600160a01b0316916326be4bf09160048083019260209291908290030181865afa158015613038573d6000803e3d6000fd5b505050506040513d601f19601f8201168201806040525081019061305c919061493a565b90506000600454600261306f91906149d6565b61307a90600a614ae0565b600760009054906101000a90046001600160a01b03166001600160a01b0316636ea8bc106040518163ffffffff1660e01b8152600401602060405180830381865afa1580156130cd573d6000803e3d6000fd5b505050506040513d601f19601f820116820180604052508101906130f19190614921565b60008581526005602052604090206007015461310d9190614aec565b6131179190614b03565b60008481526005602081905260408220600c8101805460ff19169092179091556008810154600790910154929350909161315191906149d6565b6000858152600560205260409020600801549091508210156132ea57826001600160a01b031663a9059cbb600760009054906101000a90046001600160a01b03166001600160a01b031663e00246046040518163ffffffff1660e01b8152600401602060405180830381865afa1580156131cf573d6000803e3d6000fd5b505050506040513d601f19601f820116820180604052508101906131f3919061493a565b846040518363ffffffff1660e01b8152600401613211929190614b25565b6020604051808303816000875af1158015613230573d6000803e3d6000fd5b505050506040513d601f19601f8201168201806040525081019061325491906149a3565b506000848152600560205260409020600101546001600160a01b038085169163a9059cbb911661328485856149e9565b6040518363ffffffff1660e01b81526004016132a1929190614b25565b6020604051808303816000875af11580156132c0573d6000803e3d6000fd5b505050506040513d601f19601f820116820180604052508101906132e491906149a3565b50613373565b6000848152600560205260409081902060010154905163a9059cbb60e01b81526001600160a01b038581169263a9059cbb9261332e92909116908590600401614b25565b6020604051808303816000875af115801561334d573d6000803e3d6000fd5b505050506040513d601f19601f8201168201806040525081019061337191906149a3565b505b6000848152600560209081526040808320600101546001600160a01b03168352600290915281206003018054916133a983614bab565b909155505060008481526005602090815260408083206002908101546001600160a01b0316845290915281206003018054916133e483614bab565b91905055507fb34b6b7a2bd9072b2b4e911ac8d280570402edf98d5cae7662cc003e2496ecc18460056040516115e6929190614895565b6000818152600560205260409020600201546001600160a01b031661343e613dad565b6001600160a01b0316146134645760405162461bcd60e51b815260040161033a90614b3e565b60026000828152600560205260409020600c015460ff16600881111561348c5761348c61474d565b146134a95760405162461bcd60e51b815260040161033a90614b80565b6000818152600560205260409020600c01546301000000900460ff16156135095760405162461bcd60e51b81526020600482015260146024820152736e6f6e2d436f6e7461637420636f6d706c65746560601b604482015260640161033a565b6007546040805163026be4bf60e41b815290516000926001600160a01b0316916326be4bf09160048083019260209291908290030181865afa158015613553573d6000803e3d6000fd5b505050506040513d601f19601f82011682018060405250810190613577919061493a565b90506000600454600261358a91906149d6565b61359590600a614ae0565b600760009054906101000a90046001600160a01b03166001600160a01b0316636ea8bc106040518163ffffffff1660e01b8152600401602060405180830381865afa1580156135e8573d6000803e3d6000fd5b505050506040513d601f19601f8201168201806040525081019061360c9190614921565b6000858152600560205260409020600701546136289190614aec565b6136329190614b03565b6000848152600560205260408120600c8101805460ff191660031790556008810154600790910154929350909161366991906149d6565b9050818111156137f057826001600160a01b031663a9059cbb600760009054906101000a90046001600160a01b03166001600160a01b031663e00246046040518163ffffffff1660e01b8152600401602060405180830381865afa1580156136d5573d6000803e3d6000fd5b505050506040513d601f19601f820116820180604052508101906136f9919061493a565b846040518363ffffffff1660e01b8152600401613717929190614b25565b6020604051808303816000875af1158015613736573d6000803e3d6000fd5b505050506040513d601f19601f8201168201806040525081019061375a91906149a3565b506000848152600560205260409020600201546001600160a01b038085169163a9059cbb911661378a85856149e9565b6040518363ffffffff1660e01b81526004016137a7929190614b25565b6020604051808303816000875af11580156137c6573d6000803e3d6000fd5b505050506040513d601f19601f820116820180604052508101906137ea91906149a3565b50613879565b6000848152600560205260409081902060020154905163a9059cbb60e01b81526001600160a01b038581169263a9059cbb9261383492909116908590600401614b25565b6020604051808303816000875af1158015613853573d6000803e3d6000fd5b505050506040513d601f19601f8201168201806040525081019061387791906149a3565b505b6000848152600560209081526040808320600101546001600160a01b03168352600290915281208054916138ac83614bab565b909155505060008481526005602090815260408083206002908101546001600160a01b0316845290915281206001018054916138e783614bab565b9190505550600760009054906101000a90046001600160a01b03166001600160a01b03166371d433146040518163ffffffff1660e01b8152600401602060405180830381865afa15801561393f573d6000803e3d6000fd5b505050506040513d601f19601f82011682018060405250810190613963919061493a565b600085815260056020908152604091829020600201546007548351631fa6cf7960e11b815293516001600160a01b03958616956326bd07aa9593811694921692633f4d9ef29260048083019391928290030181865afa1580156139ca573d6000803e3d6000fd5b505050506040513d601f19601f820116820180604052508101906139ee919061493a565b6040516001600160e01b031960e085901b1681526001600160a01b03928316600482015291166024820152604401600060405180830381600087803b158015613a3657600080fd5b505af1158015613a4a573d6000803e3d6000fd5b50505050600760009054906101000a90046001600160a01b03166001600160a01b03166371d433146040518163ffffffff1660e01b8152600401602060405180830381865afa158015613aa1573d6000803e3d6000fd5b505050506040513d601f19601f82011682018060405250810190613ac5919061493a565b60008581526005602090815260409182902060010154600754835163e847dd8360e01b815293516001600160a01b03958616956326bd07aa959381169492169263e847dd839260048083019391928290030181865afa158015613b2c573d6000803e3d6000fd5b505050506040513d601f19601f82011682018060405250810190613b50919061493a565b6040516001600160e01b031960e085901b1681526001600160a01b03928316600482015291166024820152604401600060405180830381600087803b158015613b9857600080fd5b505af1158015613bac573d6000803e3d6000fd5b505050507f7faabd98924c5226436962146935300b9b60c52dc902fd6d545e4d3807ca54738460036040516115e6929190614895565b6040805161020081018252600080825260208201819052918101829052606081018290526080810182905260a0810182905260c0810182905260e08101829052610100810182905261012081018290526101408101829052610160810182905261018081018290526101a081018290526101c081018290526101e08101919091526000828152600560208181526040928390208351610200810185528154815260018201546001600160a01b039081169382019390935260028201549092169382019390935260038301546060820152600483015460808201529082015460a0820152600682015460c0820152600782015460e08201526008808301546101008301526009830154610120830152600a830154610140830152600b830154610160830152600c83015491929161018084019160ff90911690811115613d2957613d2961474d565b6008811115613d3a57613d3a61474d565b8152600c919091015460ff6101008204811615156020840152620100008204811615156040840152630100000090910416151560609091015292915050565b6000602083511015613d9557613d8e83614070565b9050611aff565b81613da08482614c4c565b5060ff9050611aff565b90565b60007f00000000000000000000000000000000000000000000000000000000000000006001600160a01b03163303613dec575060131936013560601c90565b503390565b6000611aff613dfe613ea1565b8360405161190160f01b8152600281019290925260228201526042902090565b6000808251604103613e545760208301516040840151606085015160001a613e48878285856140ae565b94509450505050613e5c565b506000905060025b9250929050565b60008281526006602090815260408083206001600160a01b0385168452909152812080549182918291613e9583614bab565b91905055505092915050565b6000306001600160a01b037f000000000000000000000000000000000000000000000000000000000000000016148015613efa57507f000000000000000000000000000000000000000000000000000000000000000046145b15613f2457507f000000000000000000000000000000000000000000000000000000000000000090565b610772604080517f8b73c3c69bb8fe3d512ecc4cf759cc79239f7b179b0ffacaa9a75d522b39400f60208201527f0000000000000000000000000000000000000000000000000000000000000000918101919091527f000000000000000000000000000000000000000000000000000000000000000060608201524660808201523060a082015260009060c00160405160208183030381529060405280519060200120905090565b606060ff8314613fdf57613d8e83614172565b818054613feb90614bc4565b80601f016020809104026020016040519081016040528092919081815260200182805461401790614bc4565b80156140645780601f1061403957610100808354040283529160200191614064565b820191906000526020600020905b81548152906001019060200180831161404757829003601f168201915b50505050509050611aff565b600080829050601f8151111561409b578260405163305a27a960e01b815260040161033a9190614d0c565b80516140a682614d1f565b179392505050565b6000807f7fffffffffffffffffffffffffffffff5d576e7357a4501ddfe92f46681b20a08311156140e55750600090506003614169565b6040805160008082526020820180845289905260ff881692820192909252606081018690526080810185905260019060a0016020604051602081039080840390855afa158015614139573d6000803e3d6000fd5b5050604051601f1901519150506001600160a01b03811661416257600060019250925050614169565b9150600090505b94509492505050565b6060600061417f836141b1565b604080516020808252818301909252919250600091906020820181803683375050509182525060208101929092525090565b600060ff8216601f811115611aff57604051632cd44ac360e21b815260040160405180910390fd5b6000602082840312156141eb57600080fd5b5035919050565b634e487b7160e01b600052604160045260246000fd5b604051610160810167ffffffffffffffff8111828210171561422c5761422c6141f2565b60405290565b6001600160a01b038116811461424757600080fd5b50565b803561425581614232565b919050565b6000610160828403121561426d57600080fd5b614275614208565b9050813581526142876020830161424a565b60208201526142986040830161424a565b6040820152606082013560608201526080820135608082015260a082013560a082015260c082013560c082015260e082013560e082015261010080830135818301525061012080830135818301525061014080830135818301525092915050565b600067ffffffffffffffff80841115614314576143146141f2565b604051601f8501601f19908116603f0116810190828211818310171561433c5761433c6141f2565b8160405280935085815286868601111561435557600080fd5b858560208301376000602087830101525050509392505050565b600082601f83011261438057600080fd5b61438f838335602085016142f9565b9392505050565b60008060006101a084860312156143ac57600080fd5b833592506143bd856020860161425a565b915061018084013567ffffffffffffffff8111156143da57600080fd5b6143e68682870161436f565b9150509250925092565b600060a0828403121561440257600080fd5b60405160a0810181811067ffffffffffffffff82111715614425576144256141f2565b604052905080823561443681614232565b8152602083013561444681614232565b806020830152506040830135604082015260608301356060820152608083013560808201525092915050565b6000806000806000806000610320888a03121561448e57600080fd5b8735965061449f8960208a0161425a565b955061018088013567ffffffffffffffff808211156144bd57600080fd5b6144c98b838c0161436f565b96506144d98b6101a08c016143f0565b95506102408a01359150808211156144f057600080fd5b6144fc8b838c0161436f565b945061450c8b6102608c016143f0565b93506103008a013591508082111561452357600080fd5b506145308a828b0161436f565b91505092959891949750929550565b6000610160828403121561455257600080fd5b61438f838361425a565b60006020828403121561456e57600080fd5b813561438f81614232565b6000806040838503121561458c57600080fd5b82359150602083013561459e81614232565b809150509250929050565b6000815180845260005b818110156145cf576020818501810151868301820152016145b3565b506000602082860101526020601f19601f83011685010191505092915050565b60ff60f81b881681526000602060e08184015261460f60e084018a6145a9565b8381036040850152614621818a6145a9565b606085018990526001600160a01b038816608086015260a0850187905284810360c0860152855180825283870192509083019060005b8181101561467357835183529284019291840191600101614657565b50909c9b505050505050505050505050565b801515811461424757600080fd5b60008060008060008060008060006101208a8c0312156146b257600080fd5b89356146bd81614232565b985060208a0135975060408a0135965060608a0135955060808a0135945060a08a0135935060c08a01356146f081614685565b925060e08a013561470081614685565b91506101008a013567ffffffffffffffff81111561471d57600080fd5b8a01601f81018c1361472e57600080fd5b61473d8c8235602084016142f9565b9150509295985092959850929598565b634e487b7160e01b600052602160045260246000fd5b6009811061478157634e487b7160e01b600052602160045260246000fd5b9052565b815181526020808301516102008301916147a9908401826001600160a01b03169052565b5060408301516147c460408401826001600160a01b03169052565b50606083015160608301526080830151608083015260a083015160a083015260c083015160c083015260e083015160e08301526101008084015181840152506101208084015181840152506101408084015181840152506101608084015181840152506101808084015161483a82850182614763565b50506101a0838101511515908301526101c0808401511515908301526101e0928301511515929091019190915290565b6020808252601190820152701bdc99195c881b9bdd081b585d18da1959607a1b604082015260600190565b8281526040810161438f6020830184614763565b60208082526021908201527f6f726465722073686f756c642062652063616e63656c656420627920757365726040820152607360f81b606082015260800190565b60208082526017908201527f4f72646572205369676e617475726520696e76616c6964000000000000000000604082015260600190565b60006020828403121561493357600080fd5b5051919050565b60006020828403121561494c57600080fd5b815161438f81614232565b8681526001600160a01b03868116602083015285166040820152606081018490526080810183905260c060a08201819052600090614997908301846145a9565b98975050505050505050565b6000602082840312156149b557600080fd5b815161438f81614685565b634e487b7160e01b600052601160045260246000fd5b80820180821115611aff57611aff6149c0565b81810381811115611aff57611aff6149c0565b600181815b80851115614a37578160001904821115614a1d57614a1d6149c0565b80851615614a2a57918102915b93841c9390800290614a01565b509250929050565b600082614a4e57506001611aff565b81614a5b57506000611aff565b8160018114614a715760028114614a7b57614a97565b6001915050611aff565b60ff841115614a8c57614a8c6149c0565b50506001821b611aff565b5060208310610133831016604e8410600b8410161715614aba575081810a611aff565b614ac483836149fc565b8060001904821115614ad857614ad86149c0565b029392505050565b600061438f8383614a3f565b8082028115828204841417611aff57611aff6149c0565b600082614b2057634e487b7160e01b600052601260045260246000fd5b500490565b6001600160a01b03929092168252602082015260400190565b60208082526022908201527f6f6e6c7920636172726965722063616e20636f6d706c6574652064656c697665604082015261727960f01b606082015260800190565b6020808252601190820152701bdc99195c881b9bdd081cdd185c9d1959607a1b604082015260600190565b600060018201614bbd57614bbd6149c0565b5060010190565b600181811c90821680614bd857607f821691505b602082108103614bf857634e487b7160e01b600052602260045260246000fd5b50919050565b601f821115611a6057600081815260208120601f850160051c81016020861015614c255750805b601f850160051c820191505b81811015614c4457828155600101614c31565b505050505050565b815167ffffffffffffffff811115614c6657614c666141f2565b614c7a81614c748454614bc4565b84614bfe565b602080601f831160018114614caf5760008415614c975750858301515b600019600386901b1c1916600185901b178555614c44565b600085815260208120601f198616915b82811015614cde57888601518255948401946001909101908401614cbf565b5085821015614cfc5787850151600019600388901b60f8161c191681555b5050505050600190811b01905550565b60208152600061438f60208301846145a9565b80516020808301519190811015614bf85760001960209190910360031b1b1691905056fe94c1b06cb6aaf2113ed07cb0ceba554f56a961ce7ceeb0a2353571fb38e5d4c4a264697066735822122089a67fa1b04327826f53a2018e2c1c28e3e50087b037b6e74cf32cafa405d56264736f6c63430008120033",
  "linkReferences": {},
  "deployedLinkReferences": {}
}